:0300000002096D85
:0C096D00787FE4F6D8FD75811102098343
:0A0979003F065B4F666D7D077F6F40
:10095500E4FDEDC39FEE6480F87480985009E4FCD3
:070965000CBC9BFC0D80EBB4
:01096C002268
:0300030002098B64
:03098B00B29032F5
:030013000208F6EA
:1008F600C0E0C0F0C083C082C0D075D000C000C0C8
:0D09060001C002C003C004C005C006C00748
:1009130078087C007D007BFF7A0979797E007F0A65
:100923001208D0E4FB74082BF8E6F5A07F0A7E00DA
:070933001209550BBB0AEE8F
:10093A00D007D006D005D004D003D002D001D00011
:0B094A00D0D0D082D083D0F0D0E032BB
:0809830075A88575B80480FE1B
:10080000E709F608DFFA8046E709F208DFFA803EDA
:1008100088828C83E709F0A3DFFA8032E309F608C7
:10082000DFFA8078E309F208DFFA807088828C832F
:10083000E309F0A3DFFA806489828A83E0A3F608E3
:10084000DFFA805889828A83E0A3F208DFFA804CBD
:1008500080D280FA80C680D4806980F28033801094
:1008600080A680EA809A80A880DA80E280CA8033FD
:1008700089828A83ECFAE493A3C8C582C8CCC58375
:10088000CCF0A3C8C582C8CCC583CCDFE9DEE78045
:100890000D89828A83E493A3F608DFF9ECFAA9F0C4
:1008A000EDFB2289828A83ECFAE0A3C8C582C8CC1A
:1008B000C583CCF0A3C8C582C8CCC583CCDFEADE33
:1008C000E880DB89828A83E493A3F208DFF980CC95
:1008D00088F0EF60010E4E60C388F0ED2402B4048E
:1008E0000050B9F582EB2402B4040050AF23234535
:0608F00082239008507302
:00000001FF
