:0300000002096E84
:0C096E00787FE4F6D8FD75810F02097A4D
:08098200767938730E0D0B07A6
:10095600E4FDEDC39FEE6480F87480985009E4FCD2
:070966000CBCFFFC0D80EB4F
:01096D002267
:0300030002098A65
:03098A00D2B032B6
:030013000208F6EA
:1008F600C0E0C0F0C083C082C0D075D000C000C0C8
:0D09060001C002C003C004C005C006C00748
:1009130078087C007D007BFF7A0979827E007F0462
:100923001208D0780C7C007D007BFF7A0979867EE3
:10093300007F041208D0E4FB740C2BF8E6F59074E6
:10094300082BF8E6F5A07F0A7E001209560BBB04BC
:03095300E780E357
:08097A0075B80475A88680FE23
:10080000E709F608DFFA8046E709F208DFFA803EDA
:1008100088828C83E709F0A3DFFA8032E309F608C7
:10082000DFFA8078E309F208DFFA807088828C832F
:10083000E309F0A3DFFA806489828A83E0A3F608E3
:10084000DFFA805889828A83E0A3F208DFFA804CBD
:1008500080D280FA80C680D4806980F28033801094
:1008600080A680EA809A80A880DA80E280CA8033FD
:1008700089828A83ECFAE493A3C8C582C8CCC58375
:10088000CCF0A3C8C582C8CCC583CCDFE9DEE78045
:100890000D89828A83E493A3F608DFF9ECFAA9F0C4
:1008A000EDFB2289828A83ECFAE0A3C8C582C8CC1A
:1008B000C583CCF0A3C8C582C8CCC583CCDFEADE33
:1008C000E880DB89828A83E493A3F208DFF980CC95
:1008D00088F0EF60010E4E60C388F0ED2402B4048E
:1008E0000050B9F582EB2402B4040050AF23234535
:0608F00082239008507302
:00000001FF
